:020000040800F2
:1000000000280020B1110008C90F0008D10F000816
:10001000D90F0008E10F0008E90F000800000000F8
:10002000000000000000000000000000F10F0008C8
:10003000FD0F00080000000009100008151000085E
:10004000F9110008F9110008F9110008F911000868
:10005000F9110008F9110008F9110008F911000858
:10006000F9110008F9110008F9110008F911000848
:10007000F9110008F9110008F9110008F911000838
:10008000F9110008F9110008F9110008F911000828
:10009000F9110008F9110008F9110008F911000818
:1000A000F9110008F9110008F9110008F911000808
:1000B000F9110008F911000800000000F91100080A
:1000C000F91100080000000000000000F91100080C
:1000D00000000000F9110008F911000800000000FC
:1000E000F9110008F9110008F911000800000000DA
:1000F0000000000000000000000000000000000000
:0C01000000000000000000005FF808F1A3
:1001100010B5054C237833B9044B13B10448AFF341
:1001200000800123237010BDD401002000000000D6
:10013000AC6F000808B5034B1BB103490348AFF38C
:10014000008008BD00000000D8010020AC6F00084E
:10015000034613F8012B002AFBD1181A0138704707
:1001600081F0004102E000BF83F0004330B54FEA68
:1001700041044FEA430594EA050F08BF90EA020FD5
:100180001FBF54EA000C55EA020C7FEA645C7FEA68
:10019000655C00F0E2804FEA5454D4EB5555B8BF8B
:1001A0006D420CDD2C4480EA020281EA030382EAFC
:1001B000000083EA010180EA020281EA0303362D8E
:1001C00088BF30BD11F0004F4FEA01314FF4801C61
:1001D0004CEA113102D0404261EB410113F0004F73
:1001E0004FEA03334CEA133302D0524263EB43032A
:1001F00094EA050F00F0A780A4F10104D5F1200EC8
:100200000DDB02FA0EFC22FA05F2801841F1000122
:1002100003FA0EF2801843FA05F359410EE0A5F1F6
:1002200020050EF1200E012A03FA0EFC28BF4CF027
:10023000020C43FA05F3C01851EBE37101F00045DD
:1002400007D54FF0000EDCF1000C7EEB00006EEBEA
:100250000101B1F5801F1BD3B1F5001F0CD3490874
:100260005FEA30004FEA3C0C04F101044FEA4452CB
:1002700012F5800F80F09A80BCF1004F08BF5FEA52
:10028000500C50F1000041EB045141EA050130BD32
:100290005FEA4C0C404141EB0101013C28BFB1F544
:1002A000801FE9D291F0000F04BF01460020B1FA8F
:1002B00081F308BF2033A3F10B03B3F120020CDA62
:1002C0000C3208DD02F1140CC2F10C0201FA0CF040
:1002D00021FA02F10CE002F11402D8BFC2F1200CA5
:1002E00001FA02F120FA0CFCDCBF41EA0C0190405B
:1002F000E41AA2BF01EB0451294330BD6FEA0404A4
:100300001F3C1CDA0C340EDC04F11404C4F120028E
:1003100020FA04F001FA02F340EA030021FA04F3A0
:1003200045EA030130BDC4F10C04C4F1200220FAF7
:1003300002F001FA04F340EA0300294630BD21FA35
:1003400004F0294630BD94F0000F83F4801306BFFB
:1003500081F480110134013D4EE77FEA645C18BFEF
:100360007FEA655C29D094EA050F08BF90EA020F86
:1003700005D054EA000C04BF1946104630BD91EA7E
:10038000030F1EBF0021002030BD5FEA545C05D181
:100390004000494128BF41F0004130BD14F58004C0
:1003A0003CBF01F5801130BD01F0004545F0FE4134
:1003B00041F470014FF0000030BD7FEA645C1ABF69
:1003C000194610467FEA655C1CBF0B46024650EAA0
:1003D000013406BF52EA033591EA030F41F40021CC
:1003E00030BD00BF90F0000F04BF0021704730B552
:1003F0004FF4806404F132044FF000054FF0000127
:1004000050E700BF90F0000F04BF0021704730B5E7
:100410004FF4806404F1320410F0004548BF4042BC
:100420004FF000013EE700BF42004FEAE2014FEA11
:1004300031014FEA02701FBF12F07F4393F07F4FEC
:1004400081F06051704732F07F4208BF704793F0EF
:100450007F4F04BF41F40021704730B54FF4607402
:1004600001F0004521F000411CE700BF50EA010205
:1004700008BF704730B54FF000050AE050EA0102AE
:1004800008BF704730B511F0004502D5404261EB1E
:1004900041014FF4806404F132045FEA915C3FF45F
:1004A000D8AE4FF003025FEADC0C18BF03325FEAFC
:1004B000DC0C18BF033202EBDC02C2F1200300FAAD
:1004C00003FC20FA02F001FA03FE40EA0E0021FAD2
:1004D00002F11444BDE600BF70B54FF0FF0C4CF4C0
:1004E000E06C1CEA11541DBF1CEA135594EA0C0F72
:1004F00095EA0C0F00F0DEF82C4481EA030621EAAD
:100500004C5123EA4C5350EA013518BF52EA0335E7
:1005100041F4801143F4801338D0A0FB02CE4FF099
:100520000005E1FB02E506F00042E0FB03E54FF0C9
:100530000006E1FB03569CF0000F18BF4EF0010EC1
:10054000A4F1FF04B6F5007F64F5407404D25FEABD
:100550004E0E6D4146EB060642EAC62141EA555170
:100560004FEAC52040EA5E504FEACE2EB4F1FD0CB2
:1005700088BFBCF5E06F1ED8BEF1004F08BF5FEA30
:10058000500E50F1000041EB045170BD06F00046E2
:1005900046EA010140EA020081EA0301B4EB5C048F
:1005A000C2BFD4EB0C0541EA045170BD41F4801187
:1005B0004FF0000E013C00F3AB8014F1360FDEBFAC
:1005C000002001F0004170BDC4F10004203C35DA88
:1005D0000C341BDC04F11404C4F1200500FA05F30B
:1005E00020FA04F001FA05F240EA020001F00042AC
:1005F00021F0004110EBD37021FA04F642EB060122
:100600005EEA430E08BF20EAD37070BDC4F10C044B
:10061000C4F1200500FA04F320FA05F001FA04F20F
:1006200040EA020001F0004110EBD37041F10001FB
:100630005EEA430E08BF20EAD37070BDC4F1200506
:1006400000FA05F24EEA020E20FA04F301FA05F26E
:1006500043EA020321FA04F001F0004121FA04F216
:1006600020EA020000EBD3705EEA430E08BF20EAE6
:10067000D37070BD94F0000F0FD101F00046400020
:1006800041EB010111F4801F08BF013CF7D041EAA2
:10069000060195F0000F18BF704703F000465200A6
:1006A00043EB030313F4801F08BF013DF7D043EA77
:1006B0000603704794EA0C0F0CEA135518BF95EA2D
:1006C0000C0F0CD050EA410618BF52EA4306D1D1B4
:1006D00081EA030101F000414FF0000070BD50EAD3
:1006E000410606BF1046194652EA430619D094EA5D
:1006F0000C0F02D150EA013613D195EA0C0F05D147
:1007000052EA03361CBF104619460AD181EA03019A
:1007100001F0004141F0FE4141F470014FF0000052
:1007200070BD41F0FE4141F4780170BD70B54FF0ED
:10073000FF0C4CF4E06C1CEA11541DBF1CEA13556D
:1007400094EA0C0F95EA0C0F00F0A7F8A4EB05044F
:1007500081EA030E52EA03354FEA013100F0888046
:100760004FEA03334FF0805545EA131343EA12630F
:100770004FEA022245EA111545EA10654FEA0026C4
:100780000EF000419D4208BF964244F1FD0404F57D
:10079000407402D25B084FEA3202B61A65EB0305D9
:1007A0005B084FEA32024FF480104FF4002CB6EB96
:1007B000020E75EB030E22BFB61A754640EA0C0016
:1007C0005B084FEA3202B6EB020E75EB030E22BF56
:1007D000B61A754640EA5C005B084FEA3202B6EB97
:1007E000020E75EB030E22BFB61A754640EA9C0056
:1007F0005B084FEA3202B6EB020E75EB030E22BF26
:10080000B61A754640EADC0055EA060E18D04FEAE3
:10081000051545EA16754FEA06164FEAC30343EA83
:1008200052734FEAC2025FEA1C1CC0D111F4801F50
:100830000BD141EA00014FF000004FF0004CB6E749
:1008400011F4801F04BF01430020B4F1FD0C88BFE8
:10085000BCF5E06F3FF6AFAEB5EB030C04BFB6EBF3
:10086000020C5FEA500C50F1000041EB045170BDE6
:100870000EF0004E4EEA113114EB5C04C2BFD4EB13
:100880000C0541EA045170BD41F480114FF0000E97
:10089000013C90E645EA060E8DE60CEA135594EA13
:1008A0000C0F08BF95EA0C0F3FF43BAF94EA0C0F16
:1008B0000AD150EA01347FF434AF95EA0C0F7FF48B
:1008C00025AF104619462CE795EA0C0F06D152EADF
:1008D00003353FF4FDAE1046194622E750EA4106C3
:1008E00018BF52EA43067FF4C5AE50EA41047FF4D4
:1008F0000DAF52EA43057FF4EBAE12E74FF0FF3C39
:1009000006E000BF4FF0010C02E000BF4FF0010C09
:100910004DF804CD4FEA410C7FEA6C5C4FEA430C82
:1009200018BF7FEA6C5C1BD001B050EA410C0CBFD1
:1009300052EA430C91EA030F02BF90EA020F002033
:10094000704710F1000F91EA030F58BF994208BF9A
:1009500090422CBFD8176FEAE37040F00100704757
:100960004FEA410C7FEA6C5C02D150EA013C07D1AE
:100970004FEA430C7FEA6C5CD6D152EA033CD3D0F9
:100980005DF8040B704700BF8446104662468C46F3
:100990001946634600E000BF01B5FFF7B7FF002826
:1009A00048BF10F1000F01BD4DF808EDFFF7F4FF4F
:1009B0000CBF012000205DF808FB00BF4DF808EDDA
:1009C000FFF7EAFF34BF012000205DF808FB00BFFD
:1009D0004DF808EDFFF7E0FF94BF012000205DF81F
:1009E00008FB00BF4DF808EDFFF7CEFF94BF0120D4
:1009F00000205DF808FB00BF4DF808EDFFF7C4FFCD
:100A000034BF012000205DF808FB00BF4FEA410C15
:100A10007FEA6C5C02D150EA013C0AD14FEA430CF8
:100A20007FEA6C5C02D152EA033C02D14FF0000035
:100A300070474FF0010070474FEA410212F5001273
:100A400015D211D56FF47873B3EB625212D94FEA15
:100A5000C12343F0004343EA505311F0004F23FAFF
:100A600002F018BF404270474FF00000704750EA54
:100A7000013005D111F0004008BF6FF00040704711
:100A80004FF00000704700BF4A0011D212F500126B
:100A900011D20DD56FF47873B3EB62520ED44FEAD6
:100AA000C12343F0004343EA505323FA02F0704756
:100AB0004FF00000704750EA013002D14FF0FF3094
:100AC00070474FF0000070474FEA4102B2F1E04337
:100AD00024BFB3F5001CDCF1FE5C0DD901F0004C25
:100AE0004FEAC0024CEA5070B2F1004F40EB830075
:100AF00008BF20F00100704711F0804F21D113F1A1
:100B00003872BCBF01F00040704741F480114FEAD9
:100B10005252C2F11802C2F1200C10FA0CF320FA62
:100B200002F018BF40F001004FEAC1234FEAD3237F
:100B300003FA0CFC40EA0C0023FA02F34FEA4303E9
:100B4000CCE77FEA625307D150EA01331EBF4FF072
:100B5000FE4040F44000704701F0004040F0FE408D
:100B600040F40000704700BF38B50022002304465F
:100B70000D46FFF723FF28B920462946BDE8384037
:100B800000F00AB8204605F1004100F005F84042A7
:100B900061EB410138BD00BFD0B500220B4B0646CA
:100BA0000F46FFF799FCFFF76FFF0446FFF71AFCAB
:100BB0000022074BFFF790FC02460B4630463946B1
:100BC000FFF7D2FAFFF760FF2146D0BD0000F03DED
:100BD0000000F04180B586B002AF0346FB71FB799F
:100BE00023F00F03FB73FB791B01BB73FB7B43F00B
:100BF0000C03DBB23B72FB7B43F00803DBB27B727E
:100C0000BB7B43F00C03DBB2BB72BB7B43F008033E
:100C1000DBB2FB7207F108026423009304237E21F8
:100C2000034800F015FF00BF1037BD4680BD00BF70
:100C3000F001002080B586B002AF0346FB71FB795E
:100C400023F00F03FB73FB791B01BB73FB7B43F0AA
:100C50000D03DBB23B72FB7B43F00903DBB27B721B
:100C6000BB7B43F00D03DBB2BB72BB7B43F00903DC
:100C7000DBB2FB7207F108026423009304237E2198
:100C8000034800F0E5FE00BF1037BD4680BD00BF41
:100C9000F001002080B582B000AF786039607B68D9
:100CA000002B03D07B68012B05D009E03B6843F0A3
:100CB00080033B6004E03B6843F0C0033B6000BF3F
:100CC0003B68DBB21846FFF785FF00BF0837BD461B
:100CD00080BD80B500AF322000F0F2FA3020FFF77F
:100CE00079FF052000F0ECFA3020FFF773FF0120B8
:100CF00000F0E6FA3020FFF76DFF0A2000F0E0FA7E
:100D00002020FFF767FF0A2000F0DAFA2820FFF71B
:100D100061FF012000F0D4FA0820FFF75BFF0120FB
:100D200000F0CEFA0120FFF755FF012000F0C8FACD
:100D3000012000F0C5FA0620FFF74CFF012000F06B
:100D4000BFFA0C20FFF746FF00BF80BD80B582B020
:100D500000AF786006E07B685A1C7A601B78184602
:100D6000FFF768FF7B681B78002BF4D100BF00BF42
:100D70000837BD4680BD000080B500AF00F03EFAE8
:100D800000F012F800F07AF800F04AF8FFF7A1FF3F
:100D900000210020FFF77EFF0248FFF7D7FF00BFCA
:100DA000FDE700BFC86F000880B590B000AF07F145
:100DB000180328220021184602F02FFD3B1D0022B7
:100DC0001A605A609A60DA601A610223BB610123DB
:100DD000BB621023FB6200237B6307F118031846F4
:100DE00001F08EF90346002B01D000F075F80F23B7
:100DF0007B600023BB600023FB6000233B6100237A
:100E00007B613B1D0021184601F0FCFB0346002BD3
:100E100001D000F061F800BF4037BD4680BD000042
:100E200080B500AF124B134A1A60114B124A5A6038
:100E30000F4B00229A600E4B0022DA600C4B4FF4ED
:100E400080421A610A4B00225A61094B00229A61C2
:100E5000074B0022DA61064B00221A62044800F0B8
:100E6000B3FC0346002B01D000F036F800BF80BD74
:100E7000F001002000540040A086010080B485B03D
:100E800000AF144B9B69134A43F020039361114B4D
:100E90009B6903F02003FB60FB680E4B9B690D4AC6
:100EA00043F0040393610B4B9B6903F00403BB60A5
:100EB000BB68084B9B69074A43F008039361054BE5
:100EC0009B6903F008037B607B6800BF1437BD4655
:100ED00080BC70470010024080B400AF72B600BF03
:100EE00000BFFDE780B485B000AF154B9B69144A85
:100EF00043F001039361124B9B6903F00103BB6054
:100F0000BB680F4BDB690E4A43F08053D3610C4B37
:100F1000DB6903F080537B607B680A4B5B68FB6096
:100F2000FB6823F0E063FB60FB6843F00073FB6049
:100F3000044AFB68536000BF1437BD4680BC70474D
:100F4000001002400000014080B588B000AF78601A
:100F500007F1100300221A605A609A60DA607B6819
:100F60001B68164A934225D1154B9B69144A43F0DE
:100F700008039361124B9B6903F00803FB60FB6855
:100F8000C0233B6112237B610023BB610323FB6110
:100F900007F1100319460B4800F09AFA084BDB6979
:100FA000074A43F40013D361054BDB6903F40013D4
:100FB000BB60BB6800BF2037BD4680BD0054004009
:100FC00000100240000C014080B400AF00BFFDE7FC
:100FD00080B400AF00BFFDE780B400AF00BFFDE705
:100FE00080B400AF00BFFDE780B400AF00BFFDE7F5
:100FF00080B400AF00BFBD4680BC704780B400AF76
:1010000000BFBD4680BC704780B400AF00BFBD4686
:1010100080BC704780B500AF00F036F900BF80BDDE
:1010200080B400AF01231846BD4680BC704780B530
:1010300082B000AF7860396002F042FC03461622AD
:101040001A604FF0FF3318460837BD4680BD80B5A3
:1010500082B000AF78604FF0FF317868FFF7E7FFAC
:1010600000BFFDE780B586B000AFF860B9607A6078
:1010700000237B610AE0AFF300800146BB685A1C85
:10108000BA60CAB21A707B6901337B617A697B6886
:101090009A42F0DB7B6818461837BD4680BD80B5A4
:1010A00086B000AFF860B9607A6000237B6109E028
:1010B000BB685A1CBA601B781846AFF300807B6986
:1010C00001337B617A697B689A42F1DB7B68184661
:1010D0001837BD4680BD80B483B000AF78604FF054
:1010E000FF3318460C37BD4680BC704780B483B0D0
:1010F00000AF786039603B684FF400525A600023BB
:1011000018460C37BD4680BC704780B483B000AF32
:101110007860012318460C37BD4680BC704780B408
:1011200085B000AFF860B9607A60002318461437C4
:10113000BD4680BC7047000080B586B000AF7860C7
:10114000144A154BD31A7B617B693B61134B1B68B7
:10115000002B02D1114B124A1A60104B1A687B689F
:1011600013443A699A4207D202F0AAFB03460C22C2
:101170001A604FF0FF3309E0084B1B68FB60074B18
:101180001A687B681344054A1360FB6818461837D1
:10119000BD4680BD0028002000040000440200205D
:1011A0009803002080B400AF00BFBD4680BC7047EC
:1011B000FFF7F8FF0B480C490C4A002302E0D45813
:1011C000C4500433C4188C42F9D3094A094C002393
:1011D00001E013600432A242FBD302F077FBFFF779
:1011E000CBFD704700000020D401002040740008AF
:1011F000D401002098030020FEE7000080B500AF76
:10120000084B1B68074A43F010031360032000F0EB
:101210002BF90F2000F008F8FFF764FE00231846B2
:1012200080BD00BF0020024080B582B000AF786072
:10123000124B1A68124B1B7819464FF47A73B3FBA2
:10124000F1F3B2FBF3F3184600F035F90346002B37
:1012500001D001230EE07B680F2B0AD800227968A9
:101260004FF0FF3000F00BF9064A7B681360002353
:1012700000E0012318460837BD4680BD000000206D
:10128000080000200400002080B400AF054B1B784C
:101290001A46054B1B681344034A136000BFBD4642
:1012A00080BC7047080000204802002080B400AFD6
:1012B000024B1B681846BD4680BC704748020020A0
:1012C00080B584B000AF7860FFF7F0FFB8607B684E
:1012D000FB60FB68B3F1FF3F05D00A4B1B781A4651
:1012E000FB681344FB6000BFFFF7E0FF0246BB68EA
:1012F000D31AFA689A42F7D800BF00BF1037BD462C
:1013000080BD00BF0800002080B485B000AF7860C9
:101310007B6803F00703FB600C4BDB68BB60BA68BB
:101320004FF6FF031340BB60FB681A02BB68134310
:1013300043F0BF6343F40033BB60044ABB68D3602F
:1013400000BF1437BD4680BC704700BF00ED00E011
:1013500080B400AF044BDB681B0A03F00703184698
:10136000BD4680BC704700BF00ED00E080B483B094
:1013700000AF03463960FB7197F90730002B0ADB99
:101380003B68DAB20C4997F907301201D2B20B442C
:1013900083F800230AE03B68DAB20849FB7903F0DE
:1013A0000F03043B1201D2B20B441A7600BF0C3774
:1013B000BD4680BC704700BF00E100E000ED00E0EA
:1013C00080B489B000AFF860B9607A60FB6803F060
:1013D0000703FB61FB69C3F10703042B28BF042348
:1013E000BB61FB690433062B02D9FB69033B00E0B8
:1013F00000237B614FF0FF32BB6902FA03F3DA434B
:10140000BB681A407B699A404FF0FF317B6901FA53
:1014100003F3D9437B680B40134318462437BD467A
:1014200080BC704780B582B000AF78607B68013BBC
:10143000B3F1807F01D301230FE00A4A7B68013BAF
:1014400053600F214FF0FF30FFF790FF054B002254
:101450009A60044B07221A60002318460837BD46DD
:1014600080BD00BF10E000E080B582B000AF7860C2
:101470007868FFF749FF00BF0837BD4680BD80B5DB
:1014800086B000AF0346B9607A60FB7300237B61CE
:10149000FFF75EFF78617A68B9687869FFF790FFB7
:1014A000024697F90F3011461846FFF75FFF00BF5D
:1014B0001837BD4680BD80B582B000AF78607868CF
:1014C000FFF7B0FF034618460837BD4680BD000051
:1014D00080B48BB000AF7860396000237B6200235A
:1014E0003B6261E101227B6A02FA03F3FB613B6824
:1014F0001B68FA691340BB61BA69FB699A4240F004
:1015000050813B685B68974A93425ED0954A93420C
:1015100075D8954A934258D0934A93426FD8934ACC
:10152000934252D0914A934269D8914A93424CD007
:101530008F4A934263D88F4A934246D08D4A934252
:101540005DD8122B2AD8122B59D801A252F823F0B9
:10155000CB150008A5150008B7150008F9150008F7
:10156000FF150008FF150008FF150008FF1500080B
:10157000FF150008FF150008FF150008FF150008FB
:10158000FF150008FF150008FF150008FF150008EB
:10159000FF150008AD150008C1150008764A9342F2
:1015A00013D02CE03B68DB683B6229E03B68DB68DA
:1015B00004333B6224E03B68DB6808333B621FE096
:1015C0003B68DB680C333B621AE03B689B68002B8E
:1015D00002D104233B6213E03B689B68012B05D1D9
:1015E00008233B627B68FA691A6109E008233B62C1
:1015F0007B68FA695A6103E000233B6200E000BFA8
:10160000BB69FF2B01D87B6801E07B6804337B61F9
:10161000BB69FF2B02D87B6A9B0002E07B6A083B18
:101620009B003B617B691A680F213B6901FA03F358
:10163000DB431A40396A3B6901FA03F31A437B69B9
:101640001A603B685B6803F08053002B00F0A980B0
:101650004A4B9B69494A43F001039361474B9B699D
:1016600003F00103BB60BB68454A7B6A9B080233F9
:1016700052F82330FB607B6A03F003039B000F22C8
:1016800002FA03F3DB43FA681340FB607B683D4AD0
:1016900093420DD07B683C4A934207D07B683B4A1B
:1016A000934201D1022304E0032302E0012300E07E
:1016B00000237A6A02F0030292009340FA6813430F
:1016C000FB602F497B6A9B080233FA6841F82320AC
:1016D0003B685B6803F48013002B06D02C4B9A68A0
:1016E0002B49BB6913438B6006E0294B9A68BB69A1
:1016F000DB43274913408B603B685B6803F40013AE
:10170000002B06D0224BDA682149BB691343CB601A
:1017100006E01F4BDA68BB69DB431D491340CB6011
:101720003B685B6803F40033002B06D0184B5A6803
:101730001749BB6913434B6006E0154B5A68BB69F8
:10174000DB43134913404B603B685B6803F4803311
:10175000002B1FD00E4B1A680D49BB6913430B6059
:101760001FE000BF00003210000031100000221006
:1017700000002110000012100000111000100240A3
:101780000000014000080140000C01400010014031
:10179000000401400B4B1A68BB69DB430949134045
:1017A0000B607B6A01337B623B681A687B6A22FAB2
:1017B00003F3002B7FF496AE00BF00BF2C37BD466D
:1017C00080BC70470004014080B584B000AF7860F1
:1017D0007B68002B01D101232BE17B6893F83D301E
:1017E000DBB2002B06D17B68002283F83C207868AE
:1017F000FFF7AAFB7B68242283F83D207B681B68E7
:101800001A687B681B6822F001021A607B681B68FB
:101810001A687B681B6842F400421A607B681B6888
:101820001A687B681B6822F400421A6001F032F8E3
:10183000F8607B685B68814A934207D8FB68804AFE
:10184000934294BF01230023DBB206E0FB687D4A8C
:10185000934294BF01230023DBB2002B01D001236C
:10186000E7E0FB68784AA2FB03239B0CBB607B6824
:101870001B685B6823F03F017B681B68BA680A43FA
:101880005A607B681B681B6A23F03F017B685B68BA
:101890006A4A934202D8BB68013309E0BB684FF43F
:1018A000967202FB03F3694AA2FB03239B090133EF
:1018B0007A6812680B4313627B681B68DB6923F448
:1018C0004F4222F0FF027B685B685C498B4219D86B
:1018D000FB68591E7B685B685B00B1FBF3F3591C26
:1018E00040F6FC730B40002B0AD0FB68591E7B6846
:1018F0005B685B00B1FBF3F30133C3F30B0351E00F
:1019000004234FE07B689B68002B11D1FB68581EB5
:101910007B6859680B465B000B44B0FBF3F3013363
:10192000C3F30B03002B0CBF01230023DBB212E037
:10193000FB68581E7B6859680B469B000B44990056
:101940000B44B0FBF3F30133C3F30B03002B0CBFC9
:1019500001230023DBB2002B01D0012322E07B68AE
:101960009B68002B0ED1FB68581E7B6859680B469C
:101970005B000B44B0FBF3F30133C3F30B0343F4FD
:1019800000430FE0FB68581E7B6859680B469B00BC
:101990000B4499000B44B0FBF3F30133C3F30B0387
:1019A00043F44043796809681343CB617B681B6843
:1019B0001B6823F0C0017B68DA697B681B6A1A43E5
:1019C0007B681B680A431A607B681B689B6823F46A
:1019D000034323F0FF037A6811697A68D2681143E0
:1019E0007A6812680B4393607B681B68DB6823F09E
:1019F000FF017B685A697B689B691A437B681B6897
:101A00000A43DA607B681B681A687B681B6842F0CF
:101A100001021A607B6800221A647B68202283F826
:101A20003D207B6800221A637B68002283F83E20F9
:101A3000002318461037BD4680BD00BFA0860100B8
:101A40007F841E00FF083D0083DE1B43D34D6210E0
:101A500080B588B002AFF8607A601A460B467B8189
:101A600013463B81FFF722FC7861FB6893F83D3019
:101A7000DBB2202B40F0E0807B6900931923012228
:101A80007049F86800F064F90346002B01D0022386
:101A9000D3E0FB6893F83C30012B01D10223CCE06A
:101AA000FB68012283F83C20FB681B681B6803F07D
:101AB0000103012B07D0FB681B681A68FB681B68D1
:101AC00042F001021A60FB681B681A68FB681B6819
:101AD00022F400621A60FB68212283F83D20FB6833
:101AE000102283F83E20FB6800221A64FB687A68A3
:101AF0005A62FB683A895A85FB685B8D9AB2FB682B
:101B00001A85FB68504ADA6279897B693A6AF86813
:101B100000F09CF80346002B01D001238DE0002348
:101B20003B61FB681B685B693B61FB681B689B69E9
:101B30003B613B6966E07A69396AF86800F022FA2D
:101B40000346002B0DD0FB681B6C042B07D1FB68F0
:101B50001B681A68FB681B6842F400721A60012354
:101B60006BE0FB685B6A1A78FB681B681A61FB68AC
:101B70005B6A5A1CFB685A62FB685B8D9BB2013B37
:101B80009AB2FB685A85FB681B8D013B9AB2FB68D1
:101B90001A85FB681B685B6903F00403042B1BD1E7
:101BA000FB681B8D002B17D0FB685B6A1A78FB68FB
:101BB0001B681A61FB685B6A5A1CFB685A62FB6807
:101BC0005B8D9BB2013B9AB2FB685A85FB681B8D0B
:101BD000013B9AB2FB681A857A69396AF86800F0A5
:101BE00019FA0346002B0DD0FB681B6C042B07D1A0
:101BF000FB681B681A68FB681B6842F400721A6075
:101C000001231AE0FB681B8D002B94D1FB681B6835
:101C10001A68FB681B6842F400721A60FB68202295
:101C200083F83D20FB68002283F83E20FB680022F9
:101C300083F83C20002300E0022318461837BD46F5
:101C400080BD00BF020010000000FFFF80B588B01B
:101C500002AFF8607A603B600B467B81FB68DB6A11
:101C60007B617B69082B06D07B69012B03D07B69E4
:101C700013F5803F08D1FB681B681A68FB681B6876
:101C800042F480721A600BE0FB681B6B122B07D1C9
:101C9000FB681B681A68FB681B6842F480721A6054
:101CA0003B6800937B6800224FF00111F86800F058
:101CB0004FF80346002B0DD0FB681B681B6803F42C
:101CC0008073B3F5807F03D1FB684FF400721A6410
:101CD000032335E0FB681B69B3F5804F08D17B898E
:101CE000DBB21A46FB681B6802F0FE021A611BE0B9
:101CF0007B89DB11DBB203F00603DBB263F00F0379
:101D0000DAB2FB681B681A613B687A680E49F868AA
:101D100000F098F80346002B01D0012310E07B89E6
:101D2000DAB2FB681B681A613B687A680749F86891
:101D300000F088F80346002B01D0012300E00023C7
:101D400018461837BD4680BD08000100020001009A
:101D500080B584B000AFF860B9603B601346FB719A
:101D600048E03B68B3F1FF3F44D0FFF79FFA0246DB
:101D7000BB69D31A3A689A4202D33B68002B39D127
:101D8000BB681B0CDBB2012B0DD1FB681B685B69C8
:101D9000DA43BB6813409BB2002B0CBF0123002326
:101DA000DBB21A460CE0FB681B689B69DA43BB6830
:101DB00013409BB2002B0CBF01230023DBB21A4659
:101DC000FB799A4216D1FB6800221A63FB68202235
:101DD00083F83D20FB68002283F83E20FB681B6CE3
:101DE00043F02002FB681A64FB68002283F83C2061
:101DF000012323E0BB681B0CDBB2012B0DD1FB6878
:101E00001B685B69DA43BB6813409BB2002B0CBFB5
:101E100001230023DBB21A460CE0FB681B689B69B8
:101E2000DA43BB6813409BB2002B0CBF0123002395
:101E3000DBB21A46FB799A4293D00023184610373A
:101E4000BD4680BD80B584B000AFF860B9607A60EF
:101E50003B6071E0FB681B685B6903F48063B3F56A
:101E6000806F23D1FB681B681A68FB681B6842F40B
:101E700000721A60FB681B686FF480625A61FB682D
:101E800000221A63FB68202283F83D20FB680022B1
:101E900083F83E20FB681B6C43F00402FB681A6465
:101EA000FB68002283F83C20012367E07B68B3F1E4
:101EB000FF3F41D0FFF7FAF902463B68D31A7A6830
:101EC0009A4202D37B68002B36D1BB681B0CDBB275
:101ED000012B0CD1FB681B685B69DA43BB681340BC
:101EE0009BB2002B14BF01230023DBB20BE0FB6885
:101EF0001B689B69DA43BB6813409BB2002B14BF7D
:101F000001230023DBB2002B16D0FB6800221A63EA
:101F1000FB68202283F83D20FB68002283F83E20E6
:101F2000FB681B6C43F02002FB681A64FB6800220C
:101F300083F83C20012321E0BB681B0CDBB2012BA2
:101F40000CD1FB681B685B69DA43BB6813409BB22A
:101F5000002B14BF01230023DBB20BE0FB681B68DE
:101F60009B69DA43BB6813409BB2002B14BF01236B
:101F70000023DBB2002B7FF46DAF0023184610372F
:101F8000BD4680BD80B584B000AFF860B9607A60AE
:101F900034E0F86800F086F80346002B01D00123F6
:101FA00034E0BB68B3F1FF3F28D0FFF77FF902466A
:101FB0007B68D31ABA689A4202D3BB68002B1DD142
:101FC000FB681B685B6903F08003802B16D0FB68FD
:101FD00000221A63FB68202283F83D20FB68002260
:101FE00083F83E20FB681B6C43F02002FB681A64F8
:101FF000FB68002283F83C20012307E0FB681B6894
:102000005B6903F08003802BC3D10023184610378F
:10201000BD4680BD80B584B000AFF860B9607A601D
:1020200034E0F86800F03EF80346002B01D00123AD
:1020300034E0BB68B3F1FF3F28D0FFF737F9024621
:102040007B68D31ABA689A4202D3BB68002B1DD1B1
:10205000FB681B685B6903F00403042B16D0FB6864
:1020600000221A63FB68202283F83D20FB680022CF
:1020700083F83E20FB681B6C43F02002FB681A6467
:10208000FB68002283F83C20012307E0FB681B6803
:102090005B6903F00403042BC3D1002318461037F7
:1020A000BD4680BD80B483B000AF78607B681B689C
:1020B0005B6903F48063B3F5806F1BD17B681B6899
:1020C0006FF480625A617B6800221A637B68202269
:1020D00083F83D207B68002283F83E207B681B6CE0
:1020E00043F004027B681A647B68002283F83C207A
:1020F000012300E0002318460C37BD4680BC704722
:1021000080B586B000AF78607B68002B01D10123D9
:1021100072E27B681B6803F00103002B00F08780EC
:10212000924B5B6803F00C03042B0CD08F4B5B6865
:1021300003F00C03082B12D18C4B5B6803F4803343
:10214000B3F5803F0BD1894B1B6803F40033002BA0
:102150006CD07B685B68002B68D101234CE27B6804
:102160005B68B3F5803F06D1804B1B687F4A43F420
:10217000803313602EE07B685B68002B0CD17B4BB7
:102180001B687A4A23F480331360784B1B68774AC4
:1021900023F4802313601DE07B685B68B3F5A02FF8
:1021A0000CD1724B1B68714A43F4802313606F4B50
:1021B0001B686E4A43F4803313600BE06B4B1B6863
:1021C0006A4A23F480331360684B1B68674A23F420
:1021D000802313607B685B68002B13D0FFF766F8E1
:1021E000386108E0FFF762F802463B69D31A642BB6
:1021F00001D9032300E25D4B1B6803F40033002B7D
:10220000F0D014E0FFF752F8386108E0FFF74EF81D
:1022100002463B69D31A642B01D90323ECE1534BEB
:102220001B6803F40033002BF0D100E000BF7B6893
:102230001B6803F00203002B63D04C4B5B6803F078
:102240000C03002B0BD0494B5B6803F00C03082BED
:102250001CD1464B5B6803F48033002B16D1434BF3
:102260001B6803F00203002B05D07B681B69012B60
:1022700001D00123C0E13D4B1B6823F0F8027B68CD
:102280005B69DB00394913430B603AE07B681B69EB
:10229000002B20D0364B01221A60FFF707F8386177
:1022A00008E0FFF703F802463B69D31A022B01D975
:1022B0000323A1E12D4B1B6803F00203002BF0D098
:1022C0002A4B1B6823F0F8027B685B69DB00274917
:1022D00013430B6015E0264B00221A60FEF7E6FF61
:1022E000386108E0FEF7E2FF02463B69D31A022B91
:1022F00001D9032380E11D4B1B6803F00203002B6F
:10230000F0D17B681B6803F00803002B3AD07B6890
:102310009B69002B19D0174B01221A60FEF7C6FFEC
:10232000386108E0FEF7C2FF02463B69D31A022B70
:1023300001D9032360E10D4B5B6A03F00203002B1C
:10234000F0D0012000F0BAFA1CE00A4B00221A601B
:10235000FEF7ACFF38610FE0FEF7A8FF02463B69CD
:10236000D31A022B08D9032346E100BF0010024014
:102370000000424280044242924B5B6A03F0020337
:10238000002BE9D17B681B6803F00403002B00F0ED
:10239000A6800023FB758B4BDB6903F08053002B79
:1023A0000DD1884BDB69874A43F08053D361854B5D
:1023B000DB6903F08053BB60BB680123FB75824B74
:1023C0001B6803F48073002B18D17F4B1B687E4A77
:1023D00043F480731360FEF769FF386108E0FEF78D
:1023E00065FF02463B69D31A642B01D9032303E13D
:1023F000754B1B6803F48073002BF0D07B68DB689F
:10240000012B06D16F4B1B6A6E4A43F00103136226
:102410002DE07B68DB68002B0CD16A4B1B6A694A94
:1024200023F001031362674B1B6A664A23F004031F
:1024300013621CE07B68DB68052B0CD1614B1B6AC7
:10244000604A43F0040313625E4B1B6A5D4A43F02B
:10245000010313620BE05B4B1B6A5A4A23F0010332
:102460001362584B1B6A574A23F0040313627B68BC
:10247000DB68002B15D0FEF719FF38610AE0FEF784
:1024800015FF02463B69D31A41F28832934201D9C3
:102490000323B1E04B4B1B6A03F00203002BEED089
:1024A00014E0FEF703FF38610AE0FEF7FFFE024684
:1024B0003B69D31A41F28832934201D903239BE04E
:1024C000404B1B6A03F00203002BEED1FB7D012B76
:1024D00005D13C4BDB693B4A23F08053D3617B68D9
:1024E000DB69002B00F08780364B5B6803F00C0340
:1024F000082B61D07B68DB69022B46D1334B00226D
:102500001A60FEF7D3FE386108E0FEF7CFFE024600
:102510003B69D31A022B01D903236DE0294B1B68B9
:1025200003F00073002BF0D17B681B6AB3F5803F8A
:1025300008D1244B5B6823F400327B689B682149F7
:1025400013434B601F4B5B6823F474127B68196A5A
:102550007B685B6A0B431B4913434B601B4B012297
:102560001A60FEF7A3FE386108E0FEF79FFE024600
:102570003B69D31A022B01D903233DE0114B1B68A1
:1025800003F00073002BF0D035E0104B00221A60EE
:10259000FEF78CFE386108E0FEF788FE02463B69D4
:1025A000D31A022B01D9032326E0064B1B6803F044
:1025B0000073002BF0D11EE07B68DB69012B07D193
:1025C000012319E000100240007000406000424208
:1025D0000B4B5B68FB60FB6803F480327B681B6A13
:1025E0009A4206D1FB6803F470127B685B6A9A42D8
:1025F00001D0012300E0002318461837BD4680BDF6
:102600000010024080B584B000AF786039607B680C
:10261000002B01D10123D0E06A4B1B6803F00703B4
:102620003A689A4210D9674B1B6823F00702654944
:102630003B6813430B60634B1B6803F007033A6866
:102640009A4201D00123B8E07B681B6803F00203C3
:10265000002B20D07B681B6803F00403002B05D0FF
:10266000594B5B68584A43F4E06353607B681B68CE
:1026700003F00803002B05D0534B5B68524A43F428
:1026800060535360504B5B6823F0F0027B689B689B
:102690004D4913434B607B681B6803F00103002B1B
:1026A00040D07B685B68012B07D1474B1B6803F464
:1026B0000033002B15D101237FE07B685B68022B80
:1026C00007D1414B1B6803F00073002B09D1012394
:1026D00073E03D4B1B6803F00203002B01D1012383
:1026E0006BE0394B5B6823F003027B685B6836491B
:1026F00013434B60FEF7DAFDF8600AE0FEF7D6FD03
:102700000246FB68D31A41F28832934201D903236F
:1027100053E02D4B5B6803F00C027B685B689B0009
:102720009A42EBD1274B1B6803F007033A689A42A1
:1027300010D2244B1B6823F0070222493B68134345
:102740000B60204B1B6803F007033A689A4201D0E4
:10275000012332E07B681B6803F00403002B08D0E0
:10276000194B5B6823F4E0627B68DB68164913430E
:102770004B607B681B6803F00803002B09D0124BE9
:102780005B6823F460527B681B69DB000E491343CE
:102790004B6000F021F802460B4B5B681B0903F00D
:1027A0000F030A49CB5C22FA03F3094A1360094B71
:1027B0001B681846FEF738FD002318461037BD4643
:1027C00080BD00BF0020024000100240D46F00080E
:1027D000000000200400002080B487B000AF002378
:1027E000FB600023BB6000237B6100237B60002330
:1027F0003B611E4B5B68FB60FB6803F00C03042B22
:1028000002D0082B03D027E0194B3B6127E0FB687F
:102810009B0C03F00F03174AD35C7B60FB6803F447
:102820008033002B10D0114B5B685B0C03F001036D
:10283000114AD35CBB607B680D4A03FB02F2BB68A4
:10284000B2FBF3F37B6104E07B680C4A02FB03F309
:102850007B617B693B6102E0054B3B6100BF3B69EB
:1028600018461C37BD4680BC704700BF00100240B0
:1028700000127A00EC6F0008FC6F000800093D00B0
:1028800080B400AF024B1B681846BD4680BC704741
:102890000000002080B500AFFFF7F2FF0246054BB5
:1028A0005B681B0A03F007030349CB5C22FA03F3BE
:1028B000184680BD00100240E46F000880B485B067
:1028C00000AF78600A4B1B680A4AA2FB03235B0A2D
:1028D0007A6802FB03F3FB6000BFFB685A1EFA60D4
:1028E000002BF9D100BF00BF1437BD4680BC704734
:1028F00000000020D34D6210002B2DE9F0471D464B
:10290000BBBF03F100431D4600232D2388B01446AE
:10291000B8BF1446129A109E1370149BDDF84CA099
:1029200023F02008B8F1460F05D0B8F1450F00D1CB
:102930000136022300E0032307AA049206AACDE988
:1029400002A2CDE9003622462B4601F081F8B8F10B
:10295000470F074619D1119BDB070ED500EB06097F
:102960000022002320462946FEF71EF808B1CDF8C4
:102970001C903022079B4B451ED33846079B159A67
:10298000DB1B136008B0BDE8F087B8F1460F00EB21
:102990000609E5D10378302B0AD100220023204616
:1029A0002946FEF701F818B9C6F10106CAF8006019
:1029B000DAF800309944D3E7591C07911A70D9E727
:1029C000F7B50029B6BF2D232B23494209290270F0
:1029D000437029DD0DF107031D460A27B1FBF7F609
:1029E0001A4607FB1614303402F8014C0C46632CCF
:1029F000314603F1FF33F1DC3031941E03F8011C42
:102A00002346411CAB420AD30DF109039B1AAC4289
:102A100088BF002302330344181A03B0F0BD13F833
:102A2000016B01F8016FEDE7302330318370C17025
:102A3000031DF1E72DE9F04F91B00C46DDF86880F9
:102A400016461F46054600F0F1FE03681846089337
:102A5000FDF77EFB00230E93D8F800300990073372
:102A600023F0070303F1080294F818A0D4F800B08B
:102A7000C8F80020D3E9008929F000430B93CDF872
:102A800028804FF0FF32DDE90A01C4E912899C4B2E
:102A9000FDF7BCFF70BBDDE90A014FF0FF32984B38
:102AA000FDF796FF30BB0022002340464946FDF764
:102AB00085FF10B12D2384F84330924A924BBAF12E
:102AC000470F94BF9046984603234FF000092361B7
:102AD0002BF00403236033462146284600970FAAB3
:102AE00000F0D4F9013040F090804FF0FF3011B089
:102AF000BDE8F08F42464B4640464946FDF786FF0B
:102B000048B14B46002BB8BF2D23804AB8BF84F88C
:102B100043307F4BD3E763680AF0DF015A1C3FD193
:102B20000623636000224BF48063236006920EAAA2
:102B3000CDE904A20DAA03920DF13302CDE90132D1
:102B400063684246009328464B460A91FFF7D4FE3D
:102B50000A99804647290D9928D1C81C02DB636871
:102B6000994240DDAAF1020A5FFA8AFA5246013917
:102B700004F150000D91FFF723FF0E9A81461318C0
:102B8000012A236102DC2268D20701D501332361C7
:102B90009DF83330002B9ED02D2384F843309AE7E4
:102BA0004729BFD1002BBDD10123BAE7BAF1650F88
:102BB000DCD9BAF1660F18D1002963680BDD2161F9
:102BC00013B92268D00702D501330B4423614FF0BB
:102BD0000009A165DCE713B92268D20701D50233E9
:102BE000F4E70123F2E74FF0670A0E9B994205DBF9
:102BF00023682161D807EAD54B1CE7E70029CCBF41
:102C00000122C1F102021344E0E723685A0507D408
:102C10002369424631462846B84701302BD164E744
:102C2000BAF1650F40F2DC80D4E9120100220023E2
:102C3000FDF7BAFE002833D0012331462846354A35
:102C4000B84701303FF451AFDDE90D38434502DBB1
:102C50002368D8070FD5DDE9082331462846B84751
:102C600001303FF442AF4FF0000908F1FF3804F1A2
:102C70001A0AC84509DC23689B0700F10281E06855
:102C80000F9B9842B8BF184631E7012352463146A0
:102C90002846B84701303FF428AF09F10109E8E7B9
:102CA0000D9B002B38DC012331462846194AB847D2
:102CB00001303FF41AAFDDE90D3959EA030302D1BF
:102CC0002368D907D7D5DDE9082331462846B84718
:102CD00001303FF40AAF4FF0000A04F11A0B0D9BCC
:102CE0005B42534501DC4B4693E701235A4631468C
:102CF0002846B84701303FF4F8AE0AF1010AEEE782
:102D0000FFFFEF7FFE6F00080270000806700008EA
:102D10000A7000080E700008A36DDDF838A0534556
:102D2000A8BF5346002B994636DC4FF0000B29EA2A
:102D3000E97904F11A02A36D0A93A3EB09035B4539
:102D400031DC0D9B9A453ADC2368DA0737D40D9BBA
:102D5000AAEB03090A9BAAEB03039945A8BF99466E
:102D6000B9F1000F33DC4FF0000829EAE97904F1EA
:102D70001A0B0D9BAAEB0303A3EB090343457FF753
:102D80007AAF01235A4631462846B84701303FF40E
:102D9000ACAE08F10108ECE7424631462846B84798
:102DA0000130C2D1A1E60123314628460A92B84734
:102DB00001303FF49AAE0A9A0BF1010BBBE73146A2
:102DC000DDE908232846B8470130C0D18DE60A9ACC
:102DD0004B46314628464244B8470130C3D184E6C9
:102DE000DDF838A0BAF1010F01DCDB0736D501238D
:102DF000424631462846B84701303FF476AEDDE919
:102E0000082331462846B84701303FF46EAED4E976
:102E10001201002200230AF1FF3AFDF7C5FDC0B9F7
:102E2000534608F1010231462846B84701300CD11B
:102E30005BE601235A4631462846B84701303FF445
:102E400054AE08F10108D045F3DB4B4604F15002C3
:102E5000E0E64FF0000804F11A0BF4E701234246C4
:102E6000E1E701234A4631462846B84701303FF49E
:102E70003CAE08F10108E3680F995B1A4345F0DCAA
:102E8000FDE64FF0000804F11909F4E72DE9F047D9
:102E9000164698468A680B6907469342B8BF1346A0
:102EA000336091F843200C46DDF820900AB10133DD
:102EB00033602368990642BF336802333360256864
:102EC00015F0060506D104F1190AE36832689B1A69
:102ED000AB422BDC94F843302268003B18BF01233F
:102EE000920630D44146384604F14302C8470130C7
:102EF00023D02368226903F00603042B14BF0025A6
:102F000033684FF0000608BFE56804F11A0408BFF3
:102F1000ED1A54F8123C08BF25EAE5759342C4BF88
:102F20009B1AED18B5421AD1002008E00123524641
:102F300041463846C847013003D14FF0FF30BDE865
:102F4000F0870135C1E73020E11881F843005A1CB1
:102F500094F845102244023382F84310C2E701235B
:102F6000224641463846C8470130E6D00136D9E707
:102F70002DE9FF470F7E9146782F80460C469A46F2
:102F80000C9E01F1430207D8622F0AD8002F00F0EF
:102F9000D380582F00F0BA8004F1420684F84270C2
:102FA0003AE0A7F16303152BF6D801A151F823F0FD
:102FB000093000081D300008992F0008992F0008DB
:102FC000992F0008992F00081D300008992F00083C
:102FD000992F0008992F0008992F00081F31000829
:102FE00047300008D9300008992F0008992F0008B1
:102FF00041310008992F000847300008992F000838
:10300000992F0008E130000833681A1D1B683260F0
:1030100004F1420684F8423001239EE033682068C0
:10302000191D3160060601D51D6803E04506FBD574
:10303000B3F90050002D03DA2D236D4284F843309C
:103040000A23594811E021683368080653F8045BE5
:1030500002D4490648BFADB26F2F336014BF0A23B4
:1030600008235148002184F843106668002EA8BF49
:103070002168A660A4BF21F0040121600DB9002ED3
:103080004BD01646B5FBF3F103FB1157C75D06F8AD
:10309000017D2F46BB420D46F4D9082B0BD1236886
:1030A000DF0708D5236961689942DEBF302306F83F
:1030B000013C06F1FF36921B22614B4621464046F9
:1030C000CDF800A003AAFFF7E1FE01304AD14FF08E
:1030D000FF3004B0BDE8F087236843F0200323608D
:1030E0007827324884F84570236831681F0651F804
:1030F000045B02D45F0648BFADB23160D90744BF5C
:1031000043F0200323601DB11023ABE72648E9E715
:10311000236823F020032360F6E71646BDE73368F3
:103120002568181D616930602E061B6801D519607D
:1031300002E06806FBD51980002316462361BCE730
:10314000336800211A1D32601E686268304600F044
:10315000E4FB08B1801B606063682361002384F88E
:103160004330AAE73246494640462369D0470130FA
:10317000ADD023689B0713D4E068039B9842B8BF87
:103180001846A6E70123324649464046D04701305B
:103190009DD00135E36803995B1AAB42F2DCEBE7A3
:1031A000002504F11906F5E71070000821700008E9
:1031B0002DE9F04F87B003938B6817465A1EB2F57E
:1031C000AE7F82BF6FF4AE7503EB050B40F25D136B
:1031D0000A464FF0000588BF8B600B68804643F4B9
:1031E000F06342F81C3B0C4698BF4FF0000B1646AC
:1031F000AA46A946CDE9045501920295A26852B1AA
:103200003B681B784E2B65D8402B3DD8A3F12B0192
:10321000C8B20E283BD9B9F1000F03D0236823F4BC
:10322000807323600AF1FF3ABAF1010F00F21881AE
:10323000019B9E4200F20981012007B0BDE8F08F9A
:10324000A3F161020D2AE6D801A151F822F000BFD6
:1032500097330008173200081732000817320008A9
:10326000F7330008CF330008173200081732000880
:10327000A53300081732000817320008173200087B
:10328000173200085D330008A3F14102DAE70E2986
:10329000C1D801A050F821F04D33000817320008C2
:1032A0004D330008E333000817320008F5320008F8
:1032B0003333000833330008333300083333000856
:1032C0003333000833330008333300083333000846
:1032D000333300086E2B09D8602BB1D8542B7BD028
:1032E000592B98D1072D96D108252CE0742B73D03B
:1032F000792BF6E72168C8051BD521F080012160F4
:1033000009F10109BBF1000F03D001320BF1FF3BC2
:10331000A260A368013BA3602369013323617B683A
:10332000013B002B7B6040F387803B6801333B60AF
:1033300064E71AEB05017FF46EAF0D468A462268FA
:1033400022F4C072226006F8013BE2E72268100610
:103350007FF561AF22F080022260F4E7BAF1000F3E
:103360000ED1B9F1000F0ED1226802F4E061B1F57F
:10337000E06F08D122F4F0624FF0010A2260E2E728
:10338000BAF1020F55D0012D02D0042D7FF443AFC6
:103390000135EDB2D7E7BAF1010F7FF43CAF4FF042
:1033A000020AD0E77DB9B9F1000F7FF437AF226888
:1033B00002F4E061B1F5E06F40F0038122F4F062C5
:1033C00001252260BFE7032DE2D0052DDEE7022DA7
:1033D0007FF421AF0325B6E7062D7FF41CAF072548
:1033E000B1E7226891057FF516AF22F420722260C2
:1033F000CDF80890A7E7226802F4A061B1F5806FCC
:1034000006D050057FF507AFB9F1000F00F0D98065
:10341000910558BF029922F4F06258BFA9EB01014F
:1034200042F4C0724FF0000958BFCDE90416226083
:1034300089E74FF0030A86E739464046D4F88031E1
:10344000984700283FF4DAAEE5E6D4F87C313A46F6
:10345000404616F8011D98472369013B2361E7E6C2
:103460006B1E062B24D8022D36D8019B9E427FF678
:10347000E3AED4F87C313A46404616F8011D984731
:103480002369013B2361F0E7D4F87C313A4640469A
:103490001BF8011D98472369013B23610AF1FF3A9C
:1034A0005FFA8AFABAF1020FEED1033DEDB2761B54
:1034B0002368DA0530D55B0511D5019B9E427FF666
:1034C000BBAED4F87C313A46404616F8011D984709
:1034D0002369013B2361F0E7AA46B346DEE716F80D
:1034E000011C2369652903F1FF3306F1FF352361D0
:1034F0000CD045290AD0D4F87C313A46404698474A
:10350000236916F8021C013BB51E23613A4640466A
:10351000D4F87C3198472E46226812F0100201D070
:1035200000208AE63270236803F4C063B3F5806F2D
:103530001CD1029B4B45A3EB090223D1002240463C
:10354000019902F0EDFB039B25681B6815F0020F43
:1035500006460F4603F104021FD003990A601B6858
:10356000C3E90067E3680133E360D9E7049B002BFC
:10357000E4D005990A234046013102F051FC049B36
:10358000059EC21A04F26F139E4228BF04F5B77657
:1035900030460D4900F0DEF8D0E76D07DDD4039D1D
:1035A0002A601D6802460B46FDF730FA20B1074835
:1035B00000F0C2F92860D5E730463946FDF784FAB5
:1035C000F8E74FF000092DE632700008CD730008CF
:1035D000002310B50446C0E90033C0E9043383601A
:1035E00081814366C2818361194608225C3000F004
:1035F00014F90D4B246263620C4BA3620C4BE36223
:103600000C4B23630C4B9C4206D003F1680294429E
:1036100002D0D0339C4205D104F15800BDE81040DF
:1036200000F078B910BD00BF95370008B737000823
:10363000EF370008133800084C020020024A034903
:10364000034800F069B800BF0C000020D5610008F5
:103650001C00002041680C4B10B59942044601D073
:1036600002F0B8FDA168094B994202D0204602F051
:10367000B1FDE168064B994204D02046BDE81040F8
:1036800002F0A8BD10BD00BF4C020020B402002013
:103690001C03002010B50B4B0B4C0C4A20461A6043
:1036A00004210022FFF794FF04F1680001220921A0
:1036B000FFF78EFF04F1D0000222BDE81040122176
:1036C000FFF786BF840300204C0200203D3600082F
:1036D000014800F020B900BF8D030020014800F030
:1036E0001BB900BF8D03002010B50446FFF7F0FFA3
:1036F000236A1BB1BDE81040FFF7F0BF044B236203
:10370000044B1B68002BF5D1FFF7C4FFF2E700BFA5
:1037100055360008840300202DE9F8430746884603
:1037200014460026D4E90195B9F1010905D52468AC
:10373000002CF7D13046BDE8F883AB89012B07D9BF
:10374000B5F90E30013303D029463846C047064349
:103750006835E9E70EB46FF0004100B59CB01DABD1
:1037600002900690079104910848094953F8042BE8
:103770000591006802A9019302F0B0FB0022029BB0
:103780001A701CB05DF804EB03B0704718000020FD
:103790000802FFFF10B50C46B1F90E1000F06CF8EE
:1037A0000028ABBF636DA3891B1823F48053ACBF03
:1037B0006365A38110BD2DE9F0411F468B89054645
:1037C000DB050C46164605D502230022B1F90E1082
:1037D00000F040F8A389324623F48053A3812846A1
:1037E0003B46B4F90E10BDE8F04100F057B810B5F3
:1037F0000C46B1F90E1000F02DF8431CA38915BF3B
:10380000606523F4805343F48053A38118BFA381E0
:1038100010BDB1F90E1000F00DB8034602449342FA
:1038200000D1704703F8011BF9E70000004870471A
:103830005801002038B50023054D044608462B608A
:10384000FDF749FC431C02D12B6803B1236038BD4E
:103850008803002038B50446084611460022054D6D
:103860002A601A46FDF75BFC431C02D12B6803B1AA
:10387000236038BD8803002038B504460846114649
:103880000022054D2A601A46FDF7ECFB431C02D1CD
:103890002B6803B1236038BD8803002038B5044687
:1038A000084611460022054D2A601A46FDF7F7FB2F
:1038B000431C02D12B6803B1236038BD880300206C
:1038C000014B1868704700BF1800002070B5002633
:1038D0000C4D0D4C641BA410A64209D103F066FBED
:1038E00000260A4D0A4C641BA410A64205D170BDE7
:1038F00055F8043B98470136EEE755F8043B9847E6
:103900000136F2E73874000838740008387400088B
:103910003C740008704770477047034610B5C9B241
:1039200002449342184601D1002003E00478013399
:103930008C42F6D110BD0000004870470000C07FE7
:103940002DE9F74F03690C690746A3427EDB013C72
:10395000A30000F1140501F11408009305EB8403A2
:10396000019358F8243055F8242001339A42B2FBD1
:10397000F3F608EB84092ED34FF0000AC446AE4696
:10398000D3465CF8043B98B206FB00A01B0C020C6B
:1039900006FB0323DEF8002080B292B2121A5A44CA
:1039A000DEF800004FEA134A9BB2C3EB224303EB5D
:1039B000104392B242EA0342E1454FEA234B4EF8EC
:1039C000042BDED2009BEB582BB9019B043B9D429C
:1039D0001A462FD33C61384601F0C2F9002825DB96
:1039E0002946002058F8042BD1F800C01FFA82FEA7
:1039F0001FFA8CF3A3EB0E030344120CC2EB234219
:103A000002EB1C429BB243EA0243C1454FEA22400B
:103A100041F8043BE6D255F8242005EB840322B993
:103A2000043B9D421A460BD33C610136304603B03D
:103A3000BDE8F08F1268043B002ACBD1013CC6E7F9
:103A40001268043B002AEFD1013CEAE70020EEE7D0
:103A50002DE9F04F14461D46C76997B08346CDE95E
:103A60000245239E7FB9102000F002FE0246CBF8EB
:103A70001C0020B9EF21A84BA84802F023FCC0E9A4
:103A800001770760C760DBF81C30196859B15A68C4
:103A9000012393404A608B60584600F0DFFE00220D
:103AA000DBF81C301A602B1EAFBF0023012223F06D
:103AB00000430393A8BF3360DDF80C80984BB8BF78
:103AC000326033EA080312D142F20F73229A136074
:103AD000C8F31303234300F05085249BDFF844A26E
:103AE000002B00F052850AF1030300F04CBDDDE924
:103AF0000223CDE90C23DDE90C0100220023FCF7B1
:103B000053FF074658B10123229A1360249B13B137
:103B1000854B249A1360DFF814A200F036BD14AB75
:103B2000019315AB00935846DDE90C2301F030FA00
:103B3000C8F30A568146002E77D0DDE90C010D9BB3
:103B4000A6F2FF36C3F3130343F07F5343F440134D
:103B5000129719460022764BFCF706FB68A3D3E9BF
:103B60000023FCF7B9FC68A3D3E90023FCF7FEFAB5
:103B7000044630460D46FCF745FC65A3D3E9002317
:103B8000FCF7AAFC02460B4620462946FCF7EEFA53
:103B900004460D46FCF750FF00220746002320464E
:103BA0002946FCF70BFF40B13846FCF72BFC2246B8
:103BB0002B46FCF7F9FE00B9013F162F53D8DDE97B
:103BC0000C015C4B03EBC703D3E90023FCF7F6FEC3
:103BD00000284AD00023013F0F93149B9B1B5A1EC1
:103BE00046BFC3F1010800234FF00008099248BF07
:103BF0000993002F3BDB099B0E973B44099300235D
:103C00000A93209B092B66D8052BC4BF043B209345
:103C1000209BC8BF0024A3F10203D8BF0124032BBB
:103C200064D8DFE803F02B383656DDE914631E4410
:103C300006F23243202BC1BFC3F1400308FA03F858
:103C400006F2124324FA03F3D6BFC3F1200348EA75
:103C5000030004FA03F0FCF7C5FB0122A1F1F8739D
:103C6000013E129275E70123B6E70F90B5E77B425C
:103C70000A930023A8EB07080E93C2E700230B93D7
:103C8000219B002B35DC01231A46CDE90733219215
:103C90000BE00123F3E700230B93219BFB18089310
:103CA0000133012B0793B8BF012300210422DBF865
:103CB0001C0002F114059D421FD94160584600F0D6
:103CC0008DFD8246002839D1024640F2AF111A4BD1
:103CD000D2E60123E0E7012400230B9420934FF068
:103CE000FF330022CDE907331223D0E701230B93E2
:103CF000F5E7219BCDE90733D7E701315200D8E73B
:103D000061436F63A787D23FB3C8608B288AC63FE1
:103D1000FB799F501344D33F447000085B70000848
:103D20000000F07F407000080F7000080E7000085F
:103D30000000F83F58710008B3700008DBF81C3031
:103D40001860079B0E2B00F2A480002C00F0A180CD
:103D5000002F33DD864B07F00F0203EBC203F8059B
:103D6000D3E90034CDE904344FEA271416D5DDE950
:103D70000C01804B0326D3E90823FCF7D7FCCDE9DF
:103D8000020104F00F047B4D54B9DDE90423DDE9A1
:103D90000201FCF7CBFCCDE9020128E00226F2E7A4
:103DA000E10708D5DDE90401D5E90023FCF794FB20
:103DB000CDE90401013664100835E5E700F0D28052
:103DC000DDE90C017C426A4B04F00F0203EBC203F5
:103DD000D3E90023FCF780FB02260023CDE9020192
:103DE000644D2411002C40F0B280002BD3D1DDE9CA
:103DF00002450F9B002B00F0B78000222046294689
:103E00005D4BFCF7DBFD002800F0AE80079B002B2C
:103E100000F0AA80089B002B37DD7B1E2046049310
:103E200000222946554BFCF757FBCDE90201089CBF
:103E300001363046FCF7E6FADDE90223FCF74CFBDD
:103E400000224F4BFCF792F90546A1F15076002C69
:103E500040F09A80DDE9020100224A4BFCF784F928
:103E600002460B46CDE902232A463346FCF7C4FD41
:103E7000002840F08E82DDE902012A4606F1004367
:103E8000FCF79CFD002840F02781DDE90C34CDE9EA
:103E90000234159B002BC0F263810E2F00F360816A
:103EA000334B03EBC703D3E90034CDE90434219B42
:103EB000002B03DA079B002B40F30081DDE902456C
:103EC0005646DDE9042320462946FCF72FFCFCF783
:103ED000B3FD8046FCF796FADDE90423FCF7FCFA13
:103EE00002460B4620462946FCF73EF908F130040D
:103EF000079D06F8014BA6EB0A04A54202460B46B5
:103F000040F01681FCF732F9DDE9042304460D4642
:103F1000FCF772FD002840F0F880DDE9042320461C
:103F20002946FCF741FD18B118F0010F40F0ED8073
:103F30004946584600F092FC00233370229B01371B
:103F40001F60249B002B00F020831E601DE3E2070E
:103F500005D5D5E90023FCF7BFFA0123013664102B
:103F600008353FE7022642E7079C049761E700BF58
:103F700058710008307100080000F03F0000244034
:103F800000001C4000001440704B0B9903EBC4036D
:103F900053E902235444002945D000206C49FCF722
:103FA000C5FB33462A46FCF7DFF85646CDE910013B
:103FB000DDE90201FCF740FD0546FCF723FA024665
:103FC0000B46DDE90201FCF7CFF802460B4630351F
:103FD000CDE90223DDE9102306F8015BFCF7EEFCD6
:103FE000002863D1DDE9022300205A49FCF7BCF820
:103FF000DDE91023FCF7E2FC002840F08780A642B0
:104000003FF443AFDDE910010022534BFCF764FAA3
:104010000022CDE91001DDE902014F4BFCF75CFA0B
:10402000CDE90201C4E731462846FCF755FA564669
:10403000CDE910011394DDE90201FCF7FDFC054612
:10404000FCF7E0F902460B46DDE90201FCF78CF8CB
:1040500002460B46303506F8015BA642CDE9022345
:104060004FF0000224D1DDE91001394BFCF77EF856
:1040700002460B46DDE90201FCF7BEFC002845D1F3
:10408000DDE9102300203249FCF76EF802460B46AA
:10409000DDE90201FCF792FC00283FF4F6AE139E26
:1040A000731E139316F8013C302BF8D0049F3FE7A2
:1040B000294BFCF711FACDE90201BCE70CD1DDE98F
:1040C00004010022254BFCF707FADDE90223FCF787
:1040D00089FC002800F05B8100242546219B564680
:1040E000DB43049300272146584600F0B7FB002D20
:1040F000DCD02FB1AF4203D03946584600F0AEFBBA
:104100002946584600F0AAFBD0E7049733461E46DE
:1041100013F8012D392A07D19A45F8D1049A0132B2
:10412000049230228AF800201A7801321A70BDE712
:104130000022094BFCF7D0F90022002304460D466B
:10414000FCF732FC00283FF4BCAEF1E658710008E1
:104150000000E03F0000F03F000024400000144059
:104160000B9A002A00F0DB80209A012A00F3BF801E
:10417000129A002A00F0B78003F2334346460A9CA5
:10418000099A01211A4458469844099200F064FCA7
:1041900005465EB1099B002B08DDB342A8BF33463C
:1041A000099AA8EB0308F61AD31A09930A9BF3B1EC
:1041B0000B9B002B00F0B7808CB129462246584655
:1041C00000F008FD4A4601460546584600F05AFCF4
:1041D00049460490584600F041FB049B99460A9BCF
:1041E0001A1B04D04946584600F0F4FC81460121D0
:1041F000584600F031FC0E9B0446002B00F0C981AC
:104200001A460146584600F0E5FC209B0446012B67
:1042100000F38F80029B002B40F08780039BC3F349
:104220001303002B40F08380039B23F000431B0DFE
:104230001B052BB1099B08F10108013309930123E8
:104240000A930E9B002B00F0AA81236904EB8303E1
:10425000186900F0B5FBC0F12000099B184410F06C
:104260001F0071D0C0F12003042B65DD099BC0F154
:104270001C000344804406440993B8F1000F05DD97
:1042800049464246584600F0FFFC8146099B002BF8
:1042900005DD21461A46584600F0F6FC04460F9B01
:1042A000002B53D02146484600F05AFD00284DDA35
:1042B0007B1E494604930A220023584600F0F0FA78
:1042C0000B9B8146002B00F06C81002329460A22BB
:1042D000584600F0E5FA089B0546002B61DC209B60
:1042E000022B3BDC5DE0149BC3F1360346E7079BE2
:1042F0005C1E0A9BA342BFBF0A9B0E9AE31AD21808
:10430000A8BF1C1B079BBEBF0A940E920024002B63
:10431000B5BFA8EB030646460023079B30E7464699
:104320000A9C0B9D35E70A9A5CE7002388E7029B0D
:1043300086E700230A9388E79FD0099A1C331A4422
:1043400098441E44099298E70346F6E7079B0497B2
:10435000002B20DC0893209B022B1EDD089B002BEA
:104360007FF4BCAE21460522584600F099FA01467A
:104370000446484600F0F4FC00287FF7AFAE312336
:10438000564606F8013B049B01330493AAE6079CBA
:1043900004972546F3E7079B08930B9B002B00F03F
:1043A0000481002E05DD29463246584600F06CFC9B
:1043B00005460A9B002B5AD05846696800F00EFA51
:1043C000064628B9024640F2EF21834BFFF754BB63
:1043D0002A6905F10C01023292000C3001F05EFFF7
:1043E00001223146584600F04FFC2F4605460AF19F
:1043F00001030793089B53440B93029B03F00103B3
:104400000A93079B2146013B48460293FFF798FA1F
:104410003946089000F13008484600F0A1FC2A46D1
:1044200009902146584600F0B7FCC268064602BB18
:104430000146484600F094FC0246314658460C922C
:1044400000F00CFA209B0C9A079E43EA02010A9B9B
:10445000194310D1B8F1390F29D0099B002B02DD87
:10446000089B03F13108029B83F800803BE6284655
:10447000BBE70122E1E7099B002B04DB20990B43FA
:104480000A990B4320D1002AEDDD49460122584606
:1044900000F0FAFB2146814600F062FC002803DCB4
:1044A000E1D118F0010FDED0B8F1390FD8D139239E
:1044B000029A137033461E4616F8012C013B392A26
:1044C00052D001321A700EE6002A07DDB8F1390F1A
:1044D000EDD0029A08F10103137004E6079B079AD6
:1044E00003F8018C0B9B934228D0494600230A22F3
:1044F000584600F0D5F9AF4281464FF000034FF027
:104500000A023946584607D100F0CAF9074605465F
:10451000079B0133079374E700F0C2F92946074669
:1045200000230A22584600F0BBF90546F0E7089B35
:104530000027002BCCBF1E460126564449460122C7
:10454000584600F0A1FB2146814600F009FC0028F6
:10455000B0DC02D118F0010FACD133461E4613F87F
:10456000012D302AFAD0BEE59A45A4D1049B01332F
:10457000049331238AF80030B5E5249BDFF85CA072
:104580001BB10AF10803249A1360504617B0BDE826
:10459000F08F209B012B7FF73DAE0E9B0A930120ED
:1045A0005BE6089B002B7FF7D6AE56462146484671
:1045B000FFF7C6F900F13008089B06F8018BA6EB5F
:1045C0000A029342B3DD494600230A22584600F00E
:1045D00067F98146EAE700BFB3700008377000084A
:1045E00038B50546002940D051F8043C0C1F002B7B
:1045F000B8BFE41800F0E6F81C4A136833B96360EA
:1046000014602846BDE8384000F0E2B8A34208D95B
:10461000206821188B4201BF19685B680918216066
:10462000EDE71A465B680BB1A342FAD9116850183E
:10463000A0420BD120680144501883421160E0D1A0
:1046400018685B68084410605360DAE702D90C23ED
:104650002B60D6E7206821188B4201BF19685B6880
:104660000918216063605460CBE738BD94030020D3
:10467000024B0146186800F025B800BF1800002062
:1046800070B50F4E0C463168054611B901F0F6FDC4
:1046900030602146284601F0F1FD431C03D14FF064
:1046A000FF34204670BDC41C24F00304A042F8D09F
:1046B000211A284601F0E2FD0130F2D1EFE700BFF8
:1046C000900300202DE9F843CD1C25F003050835A3
:1046D0000C2D38BF0C25002D064601DBA94204D95C
:1046E0000C2333600020BDE8F883DFF8D48000F0AD
:1046F00069F8D8F800301C4644BB29463046FFF71D
:10470000BFFF431C044658D1D8F800402746002F6D
:1047100043D1002C4BD023683946304604EB0309C3
:1047200001F0ACFD814542D1216830466D1A294621
:10473000FFF7A6FF01303AD023682B442360D8F856
:1047400000305A6862BBC8F800700FE02268521B44
:1047500020D40B2A17D96119A342256018BF5960CC
:10476000636808BFC8F8001062514B60304600F023
:104770002FF804F10B00231D20F00700C21A1CBF04
:104780001B1AA350AFE76268A3420CBFC8F8002011
:104790005A60EBE723466468AEE73C467F68B6E7BD
:1047A0001A465B68A342FBD100235360DEE70C236B
:1047B0003046336000F00CF894E70560D6E700BFA0
:1047C000940300200148FFF7A6B800BF8C03002027
:1047D0000148FFF7A1B800BF8C03002070B5C6697F
:1047E00004460D4676B91020FFF742FF0246E0610D
:1047F00020B96B21174B184801F064FDC0E9016630
:104800000660C660E669F36883B1E369DB6853F864
:104810002500B8B9012101FA05F6721D2046920063
:1048200001F06EFD60B1C0E901560EE021220421C5
:10483000204601F065FDE369F060DB68002BE4D100
:10484000002070BD026843F825200023C0E903332F
:10485000F7E700BF44700008C470000870B5C6696F
:1048600005460C4676B91020FFF702FF0246E861C4
:1048700020B98F21084B094801F024FDC0E90166E9
:104880000660C6603CB1EB696268DB6853F82210D1
:10489000216043F8224070BD44700008C4700008D5
:1048A0002DE9F04107460C461E4600200D6901F136
:1048B000140CDCF80030013099B202FB01611E0CCF
:1048C0000B0C02FB063389B201EB034185424FEA30
:1048D00013464CF8041BECDC0EB3A368AB4219DCA6
:1048E000616838460131FFF779FF804628B90246F2
:1048F000BA210C4B0C4801F0E5FC226904F10C01D3
:10490000023292000C3001F0C9FC21463846FFF714
:10491000A5FF444604EB850301355E612561204611
:10492000BDE8F081B3700008C47000082DE9F843B9
:10493000154609221F4608330C4693FBF2F3064640
:10494000012200219A4209DB3046FFF747FF40B9B8
:104950000246D321184B194801F0B4FC5200013132
:10496000F0E7089B092D43614FF00103036116DD59
:1049700004F10909C8462C4418F8013B01460A22F3
:104980003046303BFFF78CFFA045F5D1A5F1080478
:104990004C442D1B6319BB4204DBBDE8F883092599
:1049A0000A34F6E714F8013B01460A223046303B50
:1049B000FFF776FFEEE700BFB3700008C470000891
:1049C0000346B0F5803F3ABF030410200020B3F146
:1049D000807F3CBF1B020830B3F1805F3CBF1B01EE
:1049E0000430B3F1804F3CBF9B000230002B05DB4D
:1049F00013F0804F00F1010008BF202070470368CA
:104A0000024613F007000BD0D90721D4980749BFFD
:104A10005B089B08012013605CBF02201360704795
:104A200099B209B910201B0CD9B209B908301B0A78
:104A3000190704BF1B090430990704BF9B08023003
:104A4000D90703D45B0800F1010003D0136070475D
:104A5000002070472020704710B50C460121FFF759
:104A6000BDFE024628B940F24511044B044801F04E
:104A700029FC01234461036110BD00BFB37000082D
:104A8000C47000082DE9F04F14460A6923690F46E7
:104A90009A42A2BF23460C461F46D4F810A0D7F86E
:104AA0001090A36861680AEB0906B34285B0B8BFED
:104AB0000131FFF793FE30B902464FF4B171434B19
:104AC000434801F0FFFB00F114052B46002205EBE3
:104AD0008608434521D307F1140104F1140202EBC7
:104AE0008A0201EB89030293131B153B23F0030396
:104AF000043304F11507BA4238BF04230193029B23
:104B000003918B420CD8002E03DD58F8043D002B96
:104B10005AD0066105B0BDE8F08F43F8042BD8E702
:104B2000B1F800A0BAF1000F23D0A9464FF0000C55
:104B300004F1140E5EF8047BD9F800301FFA87FBED
:104B40009BB20AFB0B336344D9F800C03F0C4FEA19
:104B50001C4C0AFB07C707EB13479BB243EA07430A
:104B600072454FEA174C49F8043BE3D8019B45F8DE
:104B700003C0039B0431B3F80290B9F1000F21D0B8
:104B8000AE464FF0000A2B6804F1140CBCF800B0DC
:104B9000BEF802709BB209FB0B77574443EA074308
:104BA0004EF8043B5CF8043B4FEA134ABEF8003071
:104BB000624509FB0A3303EB17434FEA134AE5D872
:104BC000019FEB5104359AE7013E9CE7B370000862
:104BD000C47000082DE9F843154612F00302074699
:104BE0000E4607D0254C013A002354F82220FFF747
:104BF00057FE0646AD103DD0FC697CB91020FFF78A
:104C000037FD0246F86128B940F2B3111C4B1D482C
:104C100001F058FBC0E901440460C460D7F81C806F
:104C2000D8F808404CB940F271213846FFF714FF1C
:104C300000230446C8F8080003604FF00009EB07A2
:104C40000AD5314622463846FFF71CFF80463146DA
:104C50003846FFF703FE46466D100BD0206838B982
:104C6000224621463846FFF70DFF2060C0F800902D
:104C70000446E4E73046BDE8F88300BF2071000831
:104C800044700008C47000082DE9F0470C46074640
:104C900091462369496803EB6218A3684FEA621AD8
:104CA00008F10106B3420BDB3846FFF797FD0546D6
:104CB00048B902464FF4EF71274B284801F002FB38
:104CC00001315B00EEE7002300F1140100F1100256
:104CD0001846534533DB20692AEAEA7A04F11403C3
:104CE00019F01F0901EB8A0103EB800C2BD08A46D7
:104CF0000022C9F1200E186800FA09F010434AF8A2
:104D0000040B53F8042B9C4522FA0EF2F3D8ACEBBB
:104D10000403153B23F00303043304F11500844519
:104D200038BF0423CA500AB108F10206013E3846D2
:104D300021462E61FFF792FD2846BDE8F08742F834
:104D4000040F0133C5E7043953F8042B9C4541F89F
:104D5000042FF9D8EAE700BFB3700008C470000858
:104D600003460A69006930B5801A0ED11433143134
:104D700003EB820401EB820154F8045D51F8042D29
:104D8000954203D005D24FF0FF3030BDA342F3D39C
:104D9000FBE70120F9E700002DE9F74F89460646B9
:104DA000114648461446FFF7DBFF051E12D129467F
:104DB0003046FFF713FD024628B940F237213E4B3B
:104DC0003E4801F07FFA0123C0E90435104603B0E4
:104DD000BDE8F08FBCBF4B46A1463046D9F8041061
:104DE000BABF1C4601250025FFF7F8FC024618B99A
:104DF00040F24521304BE3E700F1140BD9F8107075
:104E000009F11003C5604FF0000C09F11405D946F3
:104E1000266904F1140E05EB87080EEB8606019354
:104E2000019B5EF8040B53F804AF81B201931FFAA3
:104E30008AF35B1A000C6344C0EB1A4000EB23407A
:104E40009BB243EA004376454FEA204C49F8043BC5
:104E5000E6D8331B153B23F0030315340433A64275
:104E600038BF04231D445B441E462C4644450ED3E4
:104E700008F10301491B21F00301033DA84538BF98
:104E800000210B4453F8041D99B117619EE7E646D3
:104E900054F8041B1FFA81FCF444080C714400EB25
:104EA0002C4089B241EA00414FEA204C46F8041BED
:104EB000DCE7013FE6E700BFB3700008C4700008FC
:104EC0000E4B0B40A3F15073002B08DC5B42B3F197
:104ED000A07F4FEA235204DA4FF40023134100224B
:104EE00008E0A2F114031E2BD6BF4FF000420122AE
:104EF000DA40002319461046704700BF0000F07FDB
:104F00000269F8B500F1140606EB820252F8044C6F
:104F10001E4F2046FFF754FD0346C0F120000A2B28
:104F2000A2F10405086012DCAE422CBF002252F848
:104F3000082CC3F10B0C153324FA0CFE04FA03F30E
:104F400022FA0CF24EEA07011A431046F8BDAE42AF
:104F500036BFA2F10805002252F8082C0B3B12D0F4
:104F6000C3F1200722FA07F19C400C43B54244F0FC
:104F70007F5194BF002455F8044C9A40FC4041F402
:104F800040112243E1E744EA0701DEE70000F03F79
:104F90002DE97343012190469946089EFFF71EFCB8
:104FA000044630B9024640F20F31234B234801F04A
:104FB00089F9C9F30A55C9F313030DB143F48013FA
:104FC0000193B8F1000324D068460093FFF717FD62
:104FD000DDE90012D8B1C0F1200302FA03F30B435C
:104FE000C24063610192019B002B0CBF012202228F
:104FF000A3612261ADB1A5F2334505443560C0F12E
:105000003500099B1860204602B0BDE870836161DD
:10501000E9E701A8FFF7F3FC019B0122636120305F
:10502000E7E7A0F2324004EB820330601869FFF733
:10503000C7FCC0EB4210E4E7B3700008C47000087E
:105040002DE9F04F85B0CDE9001002A9FFF758FF18
:105050008B4606460F46009803A9FFF751FF0D4601
:10506000019B89461969009B04461B693046C91A91
:10507000DDE902329B1A03EB4113002BCDBF3A4608
:105080002A46C3EB033302EB035BD8BF02EB0359A1
:105090004B4622465946FBF749FB05B0BDE8F08F69
:1050A000013970B549111469013102F1140300EBA3
:1050B000810103EB8404051FA3420CD3A31A113B07
:1050C00023F003031132A24288BF002318440023B7
:1050D000884205D370BD53F8046B45F8046FEBE7C5
:1050E00040F8043BF4E700F1140200694B119842C8
:1050F00010B511DB0ADD11F01F0107D052F8234073
:1051000024FA01F000FA01F18C420BD102EB830387
:10511000934203D8002010BD0346F7E753F8041D5F
:105120000029F5D00120F6E72DE9F0410F46904621
:10513000FFF7C6FE04460D46B8F1000F11D0C7F3C5
:105140000A53C3F16B03002B0BDD00241B0503F195
:105150007F5505F5401522462B46FBF7BDF9044661
:105160000D4620462946BDE8F08100000000000001
:105170002DE9F04F9FB0179200220C461A924FF083
:10518000000A4FF0000B0A460590199211782B295E
:1051900048D036D80D2930D8082930D8002939D040
:1051A00000220B92199D2A78302A40F0B1806A784B
:1051B00002F0DF02582A6CD102930B9B8E4A0193B6
:1051C0001AAB009305981BAB19A901F015F910F063
:1051D0000F06044605D0062E26D100230135199569
:1051E0000B93179B002B40F084850B9BBBB1504663
:1051F0000BF100411FB0BDE8F08F2029D0D1013262
:10520000C3E72D29CCD101210B91511C1991527862
:10521000002AC7D1179B1994002B40F0688550468F
:105220005946E7E70021EFE71A9A3AB135211CA861
:10523000FFF736FF1A990598FFF710FB013E1B9AFE
:10524000042E06D8DFE806F014031D201400DDE963
:105250001CABE10548BF4BF0004B2BF000431B0D8E
:105260001B05002BBDD1FEF72BFB22230360B8E703
:1052700002F23342DDE91CA323F4801343EA025B0C
:10528000E7E7DFF878B1E4E76FF0004B4FF0FF3A63
:10529000DFE7199B5A1C19925B78302BF9D0002B51
:1052A0009FD001230993199B0A220C9300231F46C8
:1052B00008930A9319980578A5F13003D9B2092902
:1052C00028D901224E4900F0C7FF002832D0002023
:1052D0002A4681463D460346652A01D0452A14D117
:1052E0001DB9099A024395D00025199C621C199298
:1052F00062782B2A77D02D2A7BD04FF0000CA2F1B8
:105300003001092940F2828019944FF00008A2E090
:105310000023C7E7082FD5BF0A99089902FB01337C
:1053200002FB013300F10100D4BF0A930893013757
:105330001990BFE7199B5A1C19925A787FB381467E
:105340003D46A2F13003092B12D90123C4E7199B72
:1053500001305A1C19925A78302AF8D0A2F1310340
:10536000082B00F2CB84814600200546199B0C9344
:10537000303A00F101032AD099440A212B4600EB70
:10538000050C63450DD1691C01442844082816DC2E
:105390000A230A9803FB00230A93002318E03846E7
:1053A000DAE7082B03F1010303DC0A9E4E430A9659
:1053B000E7E7102BDEBF089E4E430896E1E70F2873
:1053C000EBDC0A23089803FB00230893E5E7294652
:1053D000199A0D46501C199052781846B1E74FF0B3
:1053E000000901237DE74FF0000CA21C1992A2785E
:1053F00085E74FF0010CF8E7387200080000F07FF5
:1054000020720008199A511C19915278302AF9D04B
:10541000A2F1310108293FF678AF4FF00A08303A7F
:105420000E92199A0F92199A561C19965278A2F157
:10543000300EBEF1090F39D90F9944F61F68761A5C
:10544000082E03DC0E998845A8BF8846BCF1000FE2
:1054500001D0C8F10008002D4ED1099908437FF40E
:10546000C0AE002B7FF4D6AE692A28D025DC492AAD
:1054700025D04E2A7FF4CEAE9A4919A801F0DEF964
:1054800000283FF4C7AE199B1B78282B2ED19649D4
:105490001CAA19A801F0E6F9052827D11D9BDDF803
:1054A00070A043F0FF4B4BF4E00B9AE60E9908FB1B
:1054B0000121A1F130020E92B5E76E2ADAE78B499D
:1054C00019A801F0BBF900283FF4A4AE199B884944
:1054D000013B19A8199301F0B1F910B9199B0133D7
:1054E00019934FF0000ADFF80CB27AE6824800F018
:1054F000E3FE82468B4674E6A8EB0903002F08BF43
:105500002F460A98102D2C460993A8BF1024FAF7AD
:1055100069FF092D82468B4611DC099B002B3FF465
:1055200060AE099B76DD162B5DDC7449524601EBBB
:10553000C3015B46D1E90001FAF7CEFFD9E76F4B13
:1055400003EBC40353E91223FAF7C6FF8246089817
:105550008B46FAF747FF02460B4650465946FAF784
:1055600005FE0F2D82468B46D7DD099B2C1B1C4464
:10557000002C40F3968014F00F030AD05F49524686
:1055800001EBC301D1E900015B46FAF7A5FF8246B2
:105590008B4634F00F0473D0B4F59A7F48DD0024B5
:1055A000A046A1460A9422234FF0000A059ADFF88C
:1055B00044B113600A9B002B3FF413AE1A9905986F
:1055C000FFF74CF949460598FFF748F94146059819
:1055D000FFF744F90A990598FFF740F92146059825
:1055E000FFF73CF9FDE5099AC5F125039342BCDBC1
:1055F000424CC5F10F0504EBC5015246D1E900014B
:105600005B46FAF769FF099B5D1B04EBC504D4E90F
:10561000002391E71633A8DB384BA9EB080803EB0E
:10562000C8085046D8E900235946FBF77FF860E7E1
:10563000334B50460893002359461E462411012C33
:1056400021DC0BB182468B462D49ABF1547B01EB3B
:10565000C6015246D1E900015B46FAF73DFF254BF2
:105660000A460B40274982468B4298D8A1F5801103
:105670008B4286BF4FF0FF3ADFF88CB002F1547BCB
:10568000002308937AE0E20705D5089BD3E90023BD
:10569000FAF722FF0123089A0136083264100892B3
:1056A000CDE7EDD0644214F00F020AD0134B504600
:1056B00003EBC2035946D3E90023FBF737F88246D0
:1056C0008B462411DCD01F2C20DD0024A046A146EF
:1056D0000A942223059A4FF0000A4FF0000B136042
:1056E00068E700BF0B700008247200080370000810
:1056F0003A7000080000F07FCD7300085871000870
:10570000307100080000A07CFFFFEF7F14F0100351
:1057100018BF6A235046089359460023A94EE20752
:1057200004D5D6E90023FAF7D7FE0123641006F169
:105730000806F4D10BB182468B46089BB3B1CBF37C
:105740000A52C2F16B03002B59460FDD1F2B57DDA8
:10575000342BD8BF4FF0FF334FF0000ACFBF4FF0CC
:105760005C7BC2F14B02934003EA010B0022002351
:1057700050465946FBF718F90028A6D10A9B3A462D
:1057800000930C992B460598FFF7D0F80A90002853
:105790003FF405AF0024099AA9EB0803002AA8BF2B
:1057A0000023A046129322EAE27316930A9B0598FF
:1057B0005968FFF713F8814600283FF4F4AE0A9BBE
:1057C0000C301A6903F10C010232920000F066FD00
:1057D0001CAB01931BAB009352465B460598CDE989
:1057E0000CABFFF7D5FB1A9000283FF4DCAE01218B
:1057F0000598FFF731F9804648B94FF00008D2E626
:105800004FF0FF3202FA03F303EA0A0AAEE71B9DE8
:105810001C9A002DABBF129B169BEF185E1B089BBA
:10582000A8BF169EA5EB03051544674B05F1FF3590
:10583000B8BF129F9D42C2F1360250DA5B1B1F2B8C
:105840004FF00101A2EB03023DDC01FA03F31393D5
:1058500000231093BD18089BAF4216441E443B46DC
:10586000A8BF2B46B342A8BF3346002BC2BFED1AD8
:10587000F61AFF1A129B002B16DD41461A460598B0
:10588000FFF7A8F980460028B7D001461A9A059874
:10589000FFF7F8F80E9000283FF485AE1A990598A6
:1058A000FEF7DCFF0E9B1A93002D1DDC099B002BDD
:1058B00023DD4946169A0598FFF78CF98146E0B931
:1058C0004FF000096FE6C5F17F4505F57F0505F549
:1058D0007B45E23501FA05F310931391BAE70023F3
:1058E000109301231393B5E72A461A990598FFF7F9
:1058F000CBF91A900028D9D155E6002E07DD49468C
:1059000032460598FFF7C0F981460028D8D0002F0D
:1059100008DD41463A460598FFF7B6F9804600286B
:105920003FF441AE4A461A990598FFF735FA044606
:1059300000283FF438AEC36841460F930023C3608C
:10594000FFF70EFA002845DA0F9B53EA0A036BD1E2
:10595000CBF31303002B67D12BF000431B0D1B056A
:10596000B3F1D66F60D9636913B92369012B5BDD8D
:10597000214601220598FFF787F941460446FFF7C3
:10598000EFF9002850DD2BF00043089A1B0D1B0592
:10599000002A6AD0B3F1D66F67D8B3F15C7F7FF687
:1059A00098AE50465946094B0022FAF795FD084B30
:1059B00082460B408B46002B7FF400AE2223059AD3
:1059C0001360FBE55072000802FCFFFF0000503935
:1059D0000000F07FCDF838B065D10F9ACBF31303F8
:1059E0005AB3994A93422BD1089B514603B35A4666
:1059F000964B1340B3F1D46F4FF0FF321BD81B0D01
:105A0000C3F16B0302FA03F3994219D1904B0E9A3A
:105A10009A4202D101313FF4C6AD4FF0000A8B4BE0
:105A20000E9A1A4002F5801B089B002BB9D1C5E5E0
:105A30004FF0FF33E8E71346E6E753EA0A03A2D044
:105A4000109BDBB10E9A1342EED00F9B5046594685
:105A5000089ABBB1FFF768FB02460B46DDE90C0173
:105A6000FAF784FB82468B46DEE7A3F580136FEAE4
:105A7000135B4FF0FF3A6FEA0B5BD5E7139B13EA1A
:105A80000A0FE1E7FFF750FB02460B46DDE90C0188
:105A9000FAF76AFB0022002382468B46FAF784FF5E
:105AA0000028C1D015E641462046FFF7C9FA00227A
:105AB0004FF0804306460F46FAF78AFF00286DD064
:105AC0000F9B002B78D1BAF1000F56D10E9BC3F378
:105AD0001303002B58D10022304639465D4BFAF7AC
